20231215-15:56:27.000000000 : 8=FIX.4.4|9=87|35=A|34=1|49=MARKET_1675_1|52=20231215-15:56:27.000|56=UNITY_RU_PROD|98=0|108=30|141=Y|10=229|
20231215-15:56:29.000000000 : 8=FIX.4.4|9=87|35=A|34=1|49=MARKET_1675_1|52=20231215-15:56:29.000|56=UNITY_RU_PROD|98=0|108=30|141=Y|10=231|
20231215-15:56:31.000000000 : 8=FIX.4.4|9=87|35=A|34=1|49=MARKET_1675_1|52=20231215-15:56:31.000|56=UNITY_RU_PROD|98=0|108=30|141=Y|10=224|
20231215-15:56:33.000000000 : 8=FIX.4.4|9=87|35=A|34=1|49=MARKET_1675_1|52=20231215-15:56:33.000|56=UNITY_RU_PROD|98=0|108=30|141=Y|10=226|
20231215-15:56:35.000000000 : 8=FIX.4.4|9=87|35=A|34=1|49=MARKET_1675_1|52=20231215-15:56:35.000|56=UNITY_RU_PROD|98=0|108=30|141=Y|10=228|
20231215-15:56:37.000000000 : 8=FIX.4.4|9=87|35=A|34=1|49=MARKET_1675_1|52=20231215-15:56:37.000|56=UNITY_RU_PROD|98=0|108=30|141=Y|10=230|
20231215-15:56:39.000000000 : 8=FIX.4.4|9=87|35=A|34=1|49=MARKET_1675_1|52=20231215-15:56:39.000|56=UNITY_RU_PROD|98=0|108=30|141=Y|10=232|
20231215-15:56:41.000000000 : 8=FIX.4.4|9=87|35=A|34=1|49=MARKET_1675_1|52=20231215-15:56:41.000|56=UNITY_RU_PROD|98=0|108=30|141=Y|10=225|
20231215-15:56:43.000000000 : 8=FIX.4.4|9=87|35=A|34=1|49=MARKET_1675_1|52=20231215-15:56:43.000|56=UNITY_RU_PROD|98=0|108=30|141=Y|10=227|
20231215-16:17:20.000000000 : 8=FIX.4.4|9=87|35=A|34=1|49=MARKET_1675_1|52=20231215-16:17:20.000|56=UNITY_RU_PROD|98=0|108=30|141=Y|10=220|
20231215-16:17:23.000000000 : 8=FIX.4.4|9=87|35=A|34=1|49=MARKET_1675_1|52=20231215-16:17:23.000|56=UNITY_RU_PROD|98=0|108=30|141=Y|10=223|
20231215-16:17:24.000000000 : 8=FIX.4.4|9=87|35=A|34=1|49=MARKET_1675_1|52=20231215-16:17:24.000|56=UNITY_RU_PROD|98=0|108=30|141=Y|10=224|
20231215-16:17:26.000000000 : 8=FIX.4.4|9=87|35=A|34=1|49=MARKET_1675_1|52=20231215-16:17:26.000|56=UNITY_RU_PROD|98=0|108=30|141=Y|10=226|
20231215-16:19:02.000000000 : 8=FIX.4.4|9=87|35=A|34=1|49=MARKET_1675_1|52=20231215-16:19:02.000|56=UNITY_RU_PROD|98=0|108=30|141=Y|10=222|
20231215-16:19:04.000000000 : 8=FIX.4.4|9=87|35=A|34=1|49=MARKET_1675_1|52=20231215-16:19:04.000|56=UNITY_RU_PROD|98=0|108=30|141=Y|10=224|
20231215-16:19:06.000000000 : 8=FIX.4.4|9=87|35=A|34=1|49=MARKET_1675_1|52=20231215-16:19:06.000|56=UNITY_RU_PROD|98=0|108=30|141=Y|10=226|
20231218-08:05:19.000000000 : 8=FIX.4.4|9=87|35=A|34=1|49=MARKET_1675_1|52=20231218-08:05:19.000|56=UNITY_RU_PROD|98=0|108=30|141=Y|10=229|
20231218-08:05:21.000000000 : 8=FIX.4.4|9=87|35=A|34=1|49=MARKET_1675_1|52=20231218-08:05:21.000|56=UNITY_RU_PROD|98=0|108=30|141=Y|10=222|
20231218-08:05:23.000000000 : 8=FIX.4.4|9=87|35=A|34=1|49=MARKET_1675_1|52=20231218-08:05:23.000|56=UNITY_RU_PROD|98=0|108=30|141=Y|10=224|
